:020000040000FA
:020000000628D0
:040002000034003492
:080008000B180B29850183167A
:10001000F0308600850183120B308D002030840083
:100020008D0B132817280D088000840A10286C21D6
:1000300002308500AF2002308500AF200A308500F5
:10004000AF2000308500AF200C308500AF2000309D
:100050008500AF2001308500AF2000308500AF2043
:1000600006308500AF2002309200E420DE20E4203C
:10007000E720EA20F3200A309200E120D820E42093
:10008000DE20003092005421A820940188308B009B
:10009000E420E720DB20DE2002309207F620022158
:1000A00002309207052102309207082107309200A2
:1000B00094185B285E28141867286428141861288F
:1000C00058286A209E2063286A209E2066286A207D
:1000D0009E2069288B13A82074208D200030920068
:1000E000B420CD208B1708004330B4004130B50058
:1000F0004530B6004630B7004230B8004430B90051
:100100004230BA004430BB004630BC004330BD0032
:100110004130BE004530BF00080000309200FC2096
:10012000FC20FC20FC20FC20FC2010309200FC2055
:10013000FC20FC20FC20FC20FC2008000830920061
:10014000ED20FF20FF20FF20FF20FF20F0200800EF
:1001500000308500AF2001308500AF2008008614F4
:10016000000086106C210800121A0C30121E083094
:100170008500AF2012080F398500AF2008009300DA
:10018000B420130E0F39103E8500AF2013080F392D
:10019000103E8500AF20920A080000308500AF2095
:1001A000003085000E308500AF200030850008004B
:1001B0004130BF2008004430BF2008004530BF2038
:1001C00008004730BF2008004D30BF2008004F30E6
:1001D000BF2008005230BF2008005330BF20080065
:1001E0005730BF2008005930BF2008002A30BF20F8
:1001F0000800A030BF200800DB30BF200800A3307B
:10020000BF2008003130BF2008003230BF20080076
:100210003330BF2008006C21061E1621861E2621C1
:10022000061F4B21861F36210B10090000301406D3
:10023000031908001B290F30120595000030150620
:1002400003197C299203B420CD2008000030140645
:10025000031983292B290F30120595000530150647
:1002600003197C29920AB420CD200800003014061E
:1002700003193C29103008000730120603194229DF
:10028000141408000A3012060319482994140800AF
:1002900014149414080000301406031908001030D8
:1002A0009206B420CD200800003091009000053067
:1002B0008F00910F5929900F59298F0B5929080048
:1002C00000309800970010309600980F6529970F1E
:1002D0006529960B6529080025308C0072218C0B4E
:1002E0006E29080000308D004C308E008D0F76296D
:1002F00000008E0B7829080006145421061008000F
:100300009203F92008008021921D8B29121D8B2950
:10031000063092008E29023092078E29F6200800BE
:100320008021921996290C3092009929043092026A
:060330009929F6200800E7
:00000001FF
