:020000040000FA
:020000000628D0
:040002000034003492
:080008000B18DC2885018316AA
:10001000F03086008501831288308B000B308D0014
:10002000203084008D0B152819280D088000840AC3
:100030001228F82002308500962002308500962094
:100040000A30850096200030850096200C3085000F
:1000500096200030850096200130850096200030E3
:100060008500962006308500962004309200BE2040
:10007000B820BE20C120C420C7200A309200BB2077
:10008000B220BE20B820EC208F20BE20C120B52099
:10009000B82002309207CA20D32002309207D6201F
:1000A00002309207D920941856285928141862282B
:1000B0005F2814185C28532865207E205E28652060
:1000C0007E20612865207E2064284130B4004130C4
:1000D000B5004230B6004230B7004330B80043307C
:1000E000B9004430BA004430BB004530BC00453054
:1000F000BD004630BE004630BF0008000030920010
:10010000D020D020D020D020D020D020103092007D
:10011000D020D020D020D020D020D0200800003007
:100120008500962001308500962008008614000086
:100130008610F82008009300121A0C30121E0830A6
:100140008500962012080F3985009620130E0F396E
:10015000103E8500962013080F39103E850096202A
:10016000920A080041309B20080044309B20080080
:1001700045309B20080047309B2008004D309B20D5
:1001800008004F309B20080052309B2008004D3063
:100190009B2008002A309B200800A0309B200800EC
:1001A000DB309B20080030309B20080030309B2043
:1001B000080030309B200800F820061A0000861A3C
:1001C0000000061BE720861B00000B100900141816
:1001D000EB281030920608000030910090000530A6
:1001E0008F00910FF128900FF1288F0BF128080054
:1001F00025308C00FE208C0BFA28080000308D0082
:100200004C308E008D0F022900008E0B042908004F
:00000001FF
