:020000040000FA
:020000000628D0
:040002000034003492
:080008000B184A29850183163B
:10001000F030860085018312122202308500C6204E
:1000200002308500C6200A308500C62000308500D9
:10003000C6200C308500C62000308500C620013067
:100040008500C62000308500C62006308500C62009
:10005000CB20860194010230920017210E21172136
:100060001A2120212F210A30920011210821172165
:100070000E2100309200FA21CB20940117211A2181
:100080000B210E21033092074121023092074421B7
:1000900002309207472106309200322188308B00CF
:1000A0009418532856281418872885281418592876
:1000B00050288920BA200321941D5C288B13193005
:1000C0009200941A6628141A6E2875282C210E2185
:1000D000082114210615062206223C280821292180
:1000E00011218615062206223C28232126211D21C6
:1000F0000E21202103308C0086150611FA210615E9
:100100008611FA218C0B7C283C288920862889209E
:1001100088288B13CB209020A9200630B50008003A
:100120000230AA000030AB000430AC000530AD0056
:100130000130AE000330AF000130BA000330BB0025
:100140000530BC000230BD000030BE000430BF00EE
:100150000800003092003821382138213821382118
:1001600038211030920038213821382138213821A7
:10017000382108000830920023213E213E213E21F3
:100180003E213E212C21B2018B170800861400006D
:1001900086101222080000308500C620013085003C
:1001A000C62008009203A030D62008009300121A3F
:1001B0000C30121E08308500C62012080F39850049
:1001C000C620130E0F39103E8500C62013080F39C4
:1001D000103E8500C620920A080000308500C62027
:1001E000003085000E308500C620003085000800F4
:1001F000121A0C30121E08308500C62012080F3962
:100200008500C620080000309200F820ED2008008C
:100210004130D62008004430D62008004530D62092
:1002200008004730D62008004B30D62008004D305B
:10023000D62008004F30D62008005030D6200800C5
:100240005230D62008005330D62008005530D62032
:1002500008005630D62008005730D6200800593004
:10026000D62008002A30D6200800A030D62008006A
:10027000DB30D6200800FF30D6200800A330D6207F
:1002800008003130D62008003230D6200800333044
:10029000D62008001222061E5521861E6521061F43
:1002A000A421861F75210B100900003014060319C4
:1002B00008005A290F301205950000301506031961
:1002C000222A9203F820ED200800003014060319BA
:1002D000262A6A290F3012059500053015060319E4
:1002E000222A920AF820ED20080000301406031993
:1002F00095292A301207840000089500951B222AB0
:100300008017141DB0001419B10095000730950531
:1003100041301507D62092039208141DB900141914
:10032000AD21043094060321080007301206031D96
:100330009B29141408000A301206031DA1299414E5
:10034000080014149414080000301406031908005F
:1003500010309206F820ED200800033014059500B7
:10036000013015060319BD29023015060319C229EB
:10037000033015060319C7290800B1083006031910
:10038000CC29D029B10830060319F629F729B1087C
:1003900030060319F829F929B50B0800941508004F
:1003A000FA212A301207840080133821B9089200FC
:1003B0002A3012078400801338210A3032060319CC
:1003C0000800093032060319941605303206031965
:1003D0001416B20A321C08000830920001303207AD
:1003E0009500150C92073B21032108000800080026
:1003F0000800080000309100900005308F00910F38
:10040000FF29900FFF298F0BFF290800003098006B
:10041000970010309600980F0B2A970F0B2A960B17
:100420000B2A080025308C0018228C0B142A080097
:1004300000308D004C308E008D0F1C2A00008E0B7A
:100440001E2A08000614FA2106100800D220921D68
:100450002E2A121D2E2A06309200302A02309207D0
:1004600032210800D2209219382A0C3092003B2AFF
:0A047000023092023B2A32210800FC
:00000001FF
